{
  "_format": "hh-sol-artifact-1",
  "contractName": "Will",
  "sourceName": "contracts/Will.sol",
  "abi": [
    {
      "inputs": [],
      "stateMutability": "nonpayable",
      "type": "constructor"
    },
    {
      "anonymous": false,
      "inputs": [
        {
          "indexed": true,
          "internalType": "address",
          "name": "heritor",
          "type": "address"
        },
        {
          "indexed": true,
          "internalType": "address",
          "name": "testator",
          "type": "address"
        },
        {
          "indexed": true,
          "internalType": "uint256",
          "name": "afterTime",
          "type": "uint256"
        }
      ],
      "name": "WillAdded",
      "type": "event"
    },
    {
      "anonymous": false,
      "inputs": [
        {
          "indexed": true,
          "internalType": "address",
          "name": "heritor",
          "type": "address"
        },
        {
          "indexed": true,
          "internalType": "address",
          "name": "testator",
          "type": "address"
        }
      ],
      "name": "WillReceived",
      "type": "event"
    },
    {
      "anonymous": false,
      "inputs": [
        {
          "indexed": true,
          "internalType": "address",
          "name": "heritor",
          "type": "address"
        }
      ],
      "name": "WillRenounced",
      "type": "event"
    },
    {
      "inputs": [
        {
          "internalType": "address",
          "name": "testator",
          "type": "address"
        },
        {
          "internalType": "uint256",
          "name": "afterTime",
          "type": "uint256"
        },
        {
          "internalType": "address[]",
          "name": "tokens",
          "type": "address[]"
        }
      ],
      "name": "addWill",
      "outputs": [
        {
          "internalType": "bool",
          "name": "",
          "type": "bool"
        }
      ],
      "stateMutability": "nonpayable",
      "type": "function"
    },
    {
      "inputs": [
        {
          "internalType": "address",
          "name": "heritor",
          "type": "address"
        }
      ],
      "name": "receiveWill",
      "outputs": [
        {
          "internalType": "bool",
          "name": "",
          "type": "bool"
        }
      ],
      "stateMutability": "nonpayable",
      "type": "function"
    },
    {
      "inputs": [],
      "name": "renounceWill",
      "outputs": [
        {
          "internalType": "bool",
          "name": "",
          "type": "bool"
        }
      ],
      "stateMutability": "nonpayable",
      "type": "function"
    },
    {
      "inputs": [
        {
          "internalType": "address",
          "name": "account",
          "type": "address"
        }
      ],
      "name": "willOf",
      "outputs": [
        {
          "components": [
            {
              "internalType": "address",
              "name": "testator",
              "type": "address"
            },
            {
              "internalType": "uint256",
              "name": "afterTime",
              "type": "uint256"
            },
            {
              "internalType": "uint256",
              "name": "fromTime",
              "type": "uint256"
            },
            {
              "internalType": "address[]",
              "name": "tokens",
              "type": "address[]"
            }
          ],
          "internalType": "struct Will.Book",
          "name": "",
          "type": "tuple"
        }
      ],
      "stateMutability": "view",
      "type": "function"
    }
  ],
  "bytecode": "0x608060405234801561001057600080fd5b5061131c806100206000396000f3fe608060405234801561001057600080fd5b506004361061004c5760003560e01c8063aeac686514610051578063b6220bd114610081578063d99896381461009f578063e836b422146100cf575b600080fd5b61006b60048036038101906100669190610c57565b6100ff565b6040516100789190610f41565b60405180910390f35b61008961011d565b6040516100969190610f41565b60405180910390f35b6100b960048036038101906100b49190610c2e565b610134565b6040516100c69190610fbc565b60405180910390f35b6100e960048036038101906100e49190610c2e565b610284565b6040516100f69190610f41565b60405180910390f35b6000803390506101118186868661029e565b60019150509392505050565b60008033905061012c816103ef565b600191505090565b61013c610a5f565b6000808373ffffffffffffffffffffffffffffffffffffffff1673ffffffffffffffffffffffffffffffffffffffff1681526020019081526020016000206040518060800160405290816000820160009054906101000a900473ffffffffffffffffffffffffffffffffffffffff1673ffffffffffffffffffffffffffffffffffffffff1673ffffffffffffffffffffffffffffffffffffffff16815260200160018201548152602001600282015481526020016003820180548060200260200160405190810160405280929190818152602001828054801561027457602002820191906000526020600020905b8160009054906101000a900473ffffffffffffffffffffffffffffffffffffffff1673ffffffffffffffffffffffffffffffffffffffff168152602001906001019080831161022a575b5050505050815250509050919050565b600080339050610294838261047c565b6001915050919050565b60405180608001604052808473ffffffffffffffffffffffffffffffffffffffff168152602001838152602001428152602001828152506000808673ffffffffffffffffffffffffffffffffffffffff1673ffffffffffffffffffffffffffffffffffffffff16815260200190815260200160002060008201518160000160006101000a81548173ffffffffffffffffffffffffffffffffffffffff021916908373ffffffffffffffffffffffffffffffffffffffff1602179055506020820151816001015560408201518160020155606082015181600301908051906020019061038a929190610a9d565b50905050818373ffffffffffffffffffffffffffffffffffffffff168573ffffffffffffffffffffffffffffffffffffffff167f18fef37c016e267e5d8d7d02aa72c3f6d2817aed09235ac2312032ddd42ca8a860405160405180910390a450505050565b60008060008373ffffffffffffffffffffffffffffffffffffffff1673ffffffffffffffffffffffffffffffffffffffff168152602001908152602001600020600201819055508073ffffffffffffffffffffffffffffffffffffffff167fdf91280830552b1387c24514ffacfe4dcdf28da8499f6f0b502384cbf692ba2c60405160405180910390a250565b8073ffffffffffffffffffffffffffffffffffffffff166000808473ffffffffffffffffffffffffffffffffffffffff1673ffffffffffffffffffffffffffffffffffffffff16815260200190815260200160002060000160009054906101000a900473ffffffffffffffffffffffffffffffffffffffff1673ffffffffffffffffffffffffffffffffffffffff161461054b576040517f08c379a000000000000000000000000000000000000000000000000000000000815260040161054290610f7c565b60405180910390fd5b426000808473ffffffffffffffffffffffffffffffffffffffff1673ffffffffffffffffffffffffffffffffffffffff168152602001908152602001600020600201546000808573ffffffffffffffffffffffffffffffffffffffff1673ffffffffffffffffffffffffffffffffffffffff168152602001908152602001600020600101546105da9190611079565b111561061b576040517f08c379a000000000000000000000000000000000000000000000000000000000815260040161061290610f5c565b60405180910390fd5b60005b6000808473ffffffffffffffffffffffffffffffffffffffff1673ffffffffffffffffffffffffffffffffffffffff168152602001908152602001600020600301805490508110156109b95760008060008573ffffffffffffffffffffffffffffffffffffffff1673ffffffffffffffffffffffffffffffffffffffff16815260200190815260200160002060030182815481106106e5577f4e487b7100000000000000000000000000000000000000000000000000000000600052603260045260246000fd5b9060005260206000200160009054906101000a900473ffffffffffffffffffffffffffffffffffffffff16905060008173ffffffffffffffffffffffffffffffffffffffff1663dd62ed3e86306040518363ffffffff1660e01b815260040161074f929190610eb8565b60206040518083038186803b15801561076757600080fd5b505afa15801561077b573d6000803e3d6000fd5b505050506040513d601f19601f8201168201806040525081019061079f9190610ce7565b9050600081116107e4576040517f08c379a00000000000000000000000000000000000000000000000000000000081526004016107db90610f9c565b60405180910390fd5b60008273ffffffffffffffffffffffffffffffffffffffff166370a08231876040518263ffffffff1660e01b815260040161081f9190610e9d565b60206040518083038186803b15801561083757600080fd5b505afa15801561084b573d6000803e3d6000fd5b505050506040513d601f19601f8201168201806040525081019061086f9190610ce7565b905060008282116108805781610882565b825b90508373ffffffffffffffffffffffffffffffffffffffff166323b872dd8830846040518463ffffffff1660e01b81526004016108c193929190610ee1565b602060405180830381600087803b1580156108db57600080fd5b505af11580156108ef573d6000803e3d6000fd5b505050506040513d601f19601f820116820180604052508101906109139190610cbe565b508373ffffffffffffffffffffffffffffffffffffffff1663a9059cbb87836040518363ffffffff1660e01b815260040161094f929190610f18565b602060405180830381600087803b15801561096957600080fd5b505af115801561097d573d6000803e3d6000fd5b505050506040513d601f19601f820116820180604052508101906109a19190610cbe565b505050505080806109b190611148565b91505061061e565b5060008060008473ffffffffffffffffffffffffffffffffffffffff1673ffffffffffffffffffffffffffffffffffffffff168152602001908152602001600020600201819055508073ffffffffffffffffffffffffffffffffffffffff168273ffffffffffffffffffffffffffffffffffffffff167f5c1ba1991e71eefba8740f30e28ba7134ade20c8e222424d47f3f4682c04986f60405160405180910390a35050565b6040518060800160405280600073ffffffffffffffffffffffffffffffffffffffff1681526020016000815260200160008152602001606081525090565b828054828255906000526020600020908101928215610b16579160200282015b82811115610b155782518260006101000a81548173ffffffffffffffffffffffffffffffffffffffff021916908373ffffffffffffffffffffffffffffffffffffffff16021790555091602001919060010190610abd565b5b509050610b239190610b27565b5090565b5b80821115610b40576000816000905550600101610b28565b5090565b6000610b57610b5284611003565b610fde565b90508083825260208201905082856020860282011115610b7657600080fd5b60005b85811015610ba65781610b8c8882610bb0565b845260208401935060208301925050600181019050610b79565b5050509392505050565b600081359050610bbf816112a1565b92915050565b600082601f830112610bd657600080fd5b8135610be6848260208601610b44565b91505092915050565b600081519050610bfe816112b8565b92915050565b600081359050610c13816112cf565b92915050565b600081519050610c28816112cf565b92915050565b600060208284031215610c4057600080fd5b6000610c4e84828501610bb0565b91505092915050565b600080600060608486031215610c6c57600080fd5b6000610c7a86828701610bb0565b9350506020610c8b86828701610c04565b925050604084013567ffffffffffffffff811115610ca857600080fd5b610cb486828701610bc5565b9150509250925092565b600060208284031215610cd057600080fd5b6000610cde84828501610bef565b91505092915050565b600060208284031215610cf957600080fd5b6000610d0784828501610c19565b91505092915050565b6000610d1c8383610d28565b60208301905092915050565b610d31816110cf565b82525050565b610d40816110cf565b82525050565b6000610d518261103f565b610d5b8185611057565b9350610d668361102f565b8060005b83811015610d97578151610d7e8882610d10565b9750610d898361104a565b925050600181019050610d6a565b5085935050505092915050565b610dad816110e1565b82525050565b6000610dc0600e83611068565b9150610dcb82611200565b602082019050919050565b6000610de3601d83611068565b9150610dee82611229565b602082019050919050565b6000610e06602483611068565b9150610e1182611252565b604082019050919050565b6000608083016000830151610e346000860182610d28565b506020830151610e476020860182610e7f565b506040830151610e5a6040860182610e7f565b5060608301518482036060860152610e728282610d46565b9150508091505092915050565b610e888161110d565b82525050565b610e978161110d565b82525050565b6000602082019050610eb26000830184610d37565b92915050565b6000604082019050610ecd6000830185610d37565b610eda6020830184610d37565b9392505050565b6000606082019050610ef66000830186610d37565b610f036020830185610d37565b610f106040830184610e8e565b949350505050565b6000604082019050610f2d6000830185610d37565b610f3a6020830184610e8e565b9392505050565b6000602082019050610f566000830184610da4565b92915050565b60006020820190508181036000830152610f7581610db3565b9050919050565b60006020820190508181036000830152610f9581610dd6565b9050919050565b60006020820190508181036000830152610fb581610df9565b9050919050565b60006020820190508181036000830152610fd68184610e1c565b905092915050565b6000610fe8610ff9565b9050610ff48282611117565b919050565b6000604051905090565b600067ffffffffffffffff82111561101e5761101d6111c0565b5b602082029050602081019050919050565b6000819050602082019050919050565b600081519050919050565b6000602082019050919050565b600082825260208201905092915050565b600082825260208201905092915050565b60006110848261110d565b915061108f8361110d565b9250827fffffffffffffffffffffffffffffffffffffffffffffffffffffffffffffffff038211156110c4576110c3611191565b5b828201905092915050565b60006110da826110ed565b9050919050565b60008115159050919050565b600073ffffffffffffffffffffffffffffffffffffffff82169050919050565b6000819050919050565b611120826111ef565b810181811067ffffffffffffffff8211171561113f5761113e6111c0565b5b80604052505050565b60006111538261110d565b91507fffffffffffffffffffffffffffffffffffffffffffffffffffffffffffffffff82141561118657611185611191565b5b600182019050919050565b7f4e487b7100000000000000000000000000000000000000000000000000000000600052601160045260246000fd5b7f4e487b7100000000000000000000000000000000000000000000000000000000600052604160045260246000fd5b6000601f19601f8301169050919050565b7f57696c6c3a20546f6f20736f6f6e000000000000000000000000000000000000600082015250565b7f57696c6c3a2048657269746f72206973206e6f7420636f72726563742e000000600082015250565b7f57696c6c3a2048657269746f72206469646e2774206769766520616c6c6f776160008201527f6e63652e00000000000000000000000000000000000000000000000000000000602082015250565b6112aa816110cf565b81146112b557600080fd5b50565b6112c1816110e1565b81146112cc57600080fd5b50565b6112d88161110d565b81146112e357600080fd5b5056fea2646970667358221220432a858d4c9ecb56f1bebfc1b9eea53c9ad3d6f2794cd8c947dc4ce8dd7d8e9864736f6c63430008040033",
  "linkReferences": {},
  "deployedLinkReferences": {}
}